:03000000020800F3
:0C080000787FE4F6D8FD758111020847EE
:0C0A6D00020C0000020E0000021000004D
:100A4900D291C292D293C294750800750919750A98
:050A590000750B1922DD
:100A2F00758922758C9C758A9C758D9C758B9CD253
:0A0A3F00AFD2A9D28CD2ABD28E2226
:03000B0002088C5C
:10088C00C0E0C0D0050DE50D7002050CC39509E55F
:10089C000C95085004D2908012E50D6464450C70E0
:1008AC0008D290F50CF50D8002C290D0D0D0E03279
:03001B000208BC1C
:1008BC00C0E0C0D0050FE50F7002050EC3950BE527
:1008CC000E950A5004D2958012E50F6464450E70A3
:1008DC0008D295F50EF50F8002C295D0D0D0E0323B
:1008EC0020B22630B42320B320120A5E20B21A3074
:1008FC00B41720B314750800750915750A00750B2B
:0A090C0015D291C292D293C2942238
:1009160030B22620B42320B320120A5E30B21A2049
:10092600B41720B314750800750915750A00750B00
:0A09360015D291D292D293C29422FE
:1009400020B22620B42330B320120A5E20B21A202F
:10095000B41730B314750800750915750A00750BC6
:0A09600015D291C292D293D29422D4
:10096A0020B22620B42320B320120A5E20B21A2015
:10097A00B41720B314750800750915750A00750BAC
:0A098A0015D291C292D293C29422BA
:1009940030B22630B42320B320120A5E30B21A30AB
:1009A400B41720B314750800750915750A00750B82
:0A09B40015D291C292D293C2942290
:1009BE0030B22630B42330B320120A5E30B21A3071
:1009CE00B41730B314750800750915750A00750B48
:0A09DE0015D291C292D293C2942266
:1009E80020B22630B42330B320120A5E20B21A3067
:1009F800B41730B314750800750915750A00750B1E
:0A0A080017D291C292D293C2942239
:040A5E007F647E0033
:0B0A6200EF1FAC0670011E4C70F62266
:100A1200120A49120A2F1208EC1209161209401280
:0D0A2200096A1209941209BE1209E880E663
:10080C00020A12E493A3F8E493A34003F68001F2E6
:10081C0008DFF48029E493A3F85407240CC8C333ED
:10082C00C4540F4420C8834004F456800146F6DFBC
:10083C00E4800B0102040810204080900A6DE47ED5
:10084C00019360BCA3FF543F30E509541FFEE493B1
:10085C00A360010ECF54C025E060A840B8E493A378
:10086C00FAE493A3F8E493A3C8C582C8CAC583CAA3
:10087C00F0A3C8C582C8CAC583CADFE9DEE780BE5B
:010A7900007C
:00000001FF
